{
  "_format": "hh-sol-artifact-1",
  "contractName": "AgroFundEscrow",
  "sourceName": "contracts/AgroFundEscrow.sol",
  "abi": [
    {
      "inputs": [
        {
          "internalType": "address",
          "name": "_backendWallet",
          "type": "address"
        }
      ],
      "stateMutability": "nonpayable",
      "type": "constructor"
    },
    {
      "inputs": [
        {
          "internalType": "address",
          "name": "owner",
          "type": "address"
        }
      ],
      "name": "OwnableInvalidOwner",
      "type": "error"
    },
    {
      "inputs": [
        {
          "internalType": "address",
          "name": "account",
          "type": "address"
        }
      ],
      "name": "OwnableUnauthorizedAccount",
      "type": "error"
    },
    {
      "inputs": [],
      "name": "ReentrancyGuardReentrantCall",
      "type": "error"
    },
    {
      "anonymous": false,
      "inputs": [
        {
          "indexed": true,
          "internalType": "uint256",
          "name": "projectId",
          "type": "uint256"
        },
        {
          "indexed": true,
          "internalType": "address",
          "name": "investor",
          "type": "address"
        },
        {
          "indexed": false,
          "internalType": "uint256",
          "name": "amount",
          "type": "uint256"
        }
      ],
      "name": "FundsDeposited",
      "type": "event"
    },
    {
      "anonymous": false,
      "inputs": [
        {
          "indexed": true,
          "internalType": "uint256",
          "name": "projectId",
          "type": "uint256"
        },
        {
          "indexed": true,
          "internalType": "address",
          "name": "investor",
          "type": "address"
        },
        {
          "indexed": false,
          "internalType": "uint256",
          "name": "amount",
          "type": "uint256"
        }
      ],
      "name": "FundsRefunded",
      "type": "event"
    },
    {
      "anonymous": false,
      "inputs": [
        {
          "indexed": true,
          "internalType": "uint256",
          "name": "projectId",
          "type": "uint256"
        },
        {
          "indexed": false,
          "internalType": "uint8",
          "name": "stage",
          "type": "uint8"
        },
        {
          "indexed": false,
          "internalType": "uint256",
          "name": "amount",
          "type": "uint256"
        }
      ],
      "name": "MilestoneReleased",
      "type": "event"
    },
    {
      "anonymous": false,
      "inputs": [
        {
          "indexed": true,
          "internalType": "address",
          "name": "previousOwner",
          "type": "address"
        },
        {
          "indexed": true,
          "internalType": "address",
          "name": "newOwner",
          "type": "address"
        }
      ],
      "name": "OwnershipTransferred",
      "type": "event"
    },
    {
      "anonymous": false,
      "inputs": [
        {
          "indexed": true,
          "internalType": "uint256",
          "name": "projectId",
          "type": "uint256"
        }
      ],
      "name": "ProjectCompleted",
      "type": "event"
    },
    {
      "anonymous": false,
      "inputs": [
        {
          "indexed": true,
          "internalType": "uint256",
          "name": "projectId",
          "type": "uint256"
        },
        {
          "indexed": true,
          "internalType": "address",
          "name": "farmer",
          "type": "address"
        }
      ],
      "name": "ProjectCreated",
      "type": "event"
    },
    {
      "inputs": [],
      "name": "backendWallet",
      "outputs": [
        {
          "internalType": "address",
          "name": "",
          "type": "address"
        }
      ],
      "stateMutability": "view",
      "type": "function"
    },
    {
      "inputs": [
        {
          "internalType": "uint256",
          "name": "projectId",
          "type": "uint256"
        },
        {
          "internalType": "address payable",
          "name": "farmer",
          "type": "address"
        }
      ],
      "name": "createProject",
      "outputs": [],
      "stateMutability": "nonpayable",
      "type": "function"
    },
    {
      "inputs": [
        {
          "internalType": "uint256",
          "name": "projectId",
          "type": "uint256"
        }
      ],
      "name": "depositFunds",
      "outputs": [],
      "stateMutability": "payable",
      "type": "function"
    },
    {
      "inputs": [
        {
          "internalType": "uint256",
          "name": "projectId",
          "type": "uint256"
        }
      ],
      "name": "getInvestorCount",
      "outputs": [
        {
          "internalType": "uint256",
          "name": "",
          "type": "uint256"
        }
      ],
      "stateMutability": "view",
      "type": "function"
    },
    {
      "inputs": [
        {
          "internalType": "uint256",
          "name": "projectId",
          "type": "uint256"
        },
        {
          "internalType": "address",
          "name": "investor",
          "type": "address"
        }
      ],
      "name": "getInvestorShare",
      "outputs": [
        {
          "internalType": "uint256",
          "name": "",
          "type": "uint256"
        }
      ],
      "stateMutability": "view",
      "type": "function"
    },
    {
      "inputs": [
        {
          "internalType": "uint256",
          "name": "projectId",
          "type": "uint256"
        }
      ],
      "name": "getProject",
      "outputs": [
        {
          "internalType": "address",
          "name": "farmer",
          "type": "address"
        },
        {
          "internalType": "uint256",
          "name": "totalFunded",
          "type": "uint256"
        },
        {
          "internalType": "uint256",
          "name": "releasedAmount",
          "type": "uint256"
        },
        {
          "internalType": "uint8",
          "name": "currentMilestone",
          "type": "uint8"
        },
        {
          "internalType": "bool",
          "name": "completed",
          "type": "bool"
        },
        {
          "internalType": "bool",
          "name": "failed",
          "type": "bool"
        }
      ],
      "stateMutability": "view",
      "type": "function"
    },
    {
      "inputs": [
        {
          "internalType": "uint256",
          "name": "",
          "type": "uint256"
        },
        {
          "internalType": "address",
          "name": "",
          "type": "address"
        }
      ],
      "name": "investorAmounts",
      "outputs": [
        {
          "internalType": "uint256",
          "name": "",
          "type": "uint256"
        }
      ],
      "stateMutability": "view",
      "type": "function"
    },
    {
      "inputs": [
        {
          "internalType": "uint256",
          "name": "",
          "type": "uint256"
        },
        {
          "internalType": "uint256",
          "name": "",
          "type": "uint256"
        }
      ],
      "name": "investorLists",
      "outputs": [
        {
          "internalType": "address",
          "name": "",
          "type": "address"
        }
      ],
      "stateMutability": "view",
      "type": "function"
    },
    {
      "inputs": [
        {
          "internalType": "uint256",
          "name": "",
          "type": "uint256"
        }
      ],
      "name": "milestonePercents",
      "outputs": [
        {
          "internalType": "uint16",
          "name": "",
          "type": "uint16"
        }
      ],
      "stateMutability": "view",
      "type": "function"
    },
    {
      "inputs": [],
      "name": "owner",
      "outputs": [
        {
          "internalType": "address",
          "name": "",
          "type": "address"
        }
      ],
      "stateMutability": "view",
      "type": "function"
    },
    {
      "inputs": [
        {
          "internalType": "uint256",
          "name": "",
          "type": "uint256"
        }
      ],
      "name": "projects",
      "outputs": [
        {
          "internalType": "address payable",
          "name": "farmer",
          "type": "address"
        },
        {
          "internalType": "uint256",
          "name": "totalFunded",
          "type": "uint256"
        },
        {
          "internalType": "uint256",
          "name": "releasedAmount",
          "type": "uint256"
        },
        {
          "internalType": "uint8",
          "name": "currentMilestone",
          "type": "uint8"
        },
        {
          "internalType": "bool",
          "name": "completed",
          "type": "bool"
        },
        {
          "internalType": "bool",
          "name": "failed",
          "type": "bool"
        }
      ],
      "stateMutability": "view",
      "type": "function"
    },
    {
      "inputs": [
        {
          "internalType": "uint256",
          "name": "projectId",
          "type": "uint256"
        }
      ],
      "name": "refund",
      "outputs": [],
      "stateMutability": "nonpayable",
      "type": "function"
    },
    {
      "inputs": [
        {
          "internalType": "uint256",
          "name": "projectId",
          "type": "uint256"
        },
        {
          "internalType": "uint8",
          "name": "stage",
          "type": "uint8"
        }
      ],
      "name": "releaseMilestone",
      "outputs": [],
      "stateMutability": "nonpayable",
      "type": "function"
    },
    {
      "inputs": [],
      "name": "renounceOwnership",
      "outputs": [],
      "stateMutability": "nonpayable",
      "type": "function"
    },
    {
      "inputs": [
        {
          "internalType": "address",
          "name": "_newBackend",
          "type": "address"
        }
      ],
      "name": "setBackendWallet",
      "outputs": [],
      "stateMutability": "nonpayable",
      "type": "function"
    },
    {
      "inputs": [
        {
          "internalType": "address",
          "name": "newOwner",
          "type": "address"
        }
      ],
      "name": "transferOwnership",
      "outputs": [],
      "stateMutability": "nonpayable",
      "type": "function"
    }
  ],
  "bytecode": "0x6101006040526107d060809081526109c460a0819052610bb860c05260e0526200002e90600690600462000185565b503480156200003c57600080fd5b50604051620015ed380380620015ed8339810160408190526200005f9162000239565b33806200008757604051631e4fbdf760e01b8152600060048201526024015b60405180910390fd5b620000928162000135565b5060017f9b779b17422d0df92223018b32b4d1fa46e071723d6817e2486d003becc55f00556001600160a01b0381166200010f5760405162461bcd60e51b815260206004820152601660248201527f496e76616c6964206261636b656e642077616c6c65740000000000000000000060448201526064016200007e565b600180546001600160a01b0319166001600160a01b03929092169190911790556200026b565b600080546001600160a01b038381166001600160a01b0319831681178455604051919092169283917f8be0079c531659141344cd1fd0a4f28419497f9722a3daafe3b4186f6b6457e09190a35050565b600183019183908215620002105791602002820160005b83821115620001de57835183826101000a81548161ffff021916908361ffff16021790555092602001926002016020816001010492830192600103026200019c565b80156200020e5782816101000a81549061ffff0219169055600201602081600101049283019260010302620001de565b505b506200021e92915062000222565b5090565b5b808211156200021e576000815560010162000223565b6000602082840312156200024c57600080fd5b81516001600160a01b03811681146200026457600080fd5b9392505050565b611372806200027b6000396000f3fe6080604052600436106100f35760003560e01c80635a9184d61161008a578063d6dfd20011610059578063d6dfd20014610320578063da5467a514610358578063f0f3f2c814610385578063f2fde38b146103e957600080fd5b80635a9184d6146102ad578063715018a6146102cd5780638da5cb5b146102e2578063a680baaf1461030057600080fd5b8063278ecde1116100c6578063278ecde11461020f5780632cfb93f11461022f5780633b76594d1461026757806353f0b6491461027a57600080fd5b8063020d4386146100f85780630d23e0801461012b5780630edfe7ec1461014d578063107046bd1461016d575b600080fd5b34801561010457600080fd5b50610118610113366004611134565b610409565b6040519081526020015b60405180910390f35b34801561013757600080fd5b5061014b610146366004611164565b610433565b005b34801561015957600080fd5b5061014b61016836600461118f565b610838565b34801561017957600080fd5b506101d16101883660046111b3565b600260208190526000918252604090912080546001820154928201546003909201546001600160a01b0390911692919060ff808216916101008104821691620100009091041686565b604080516001600160a01b03909716875260208701959095529385019290925260ff16606084015215156080830152151560a082015260c001610122565b34801561021b57600080fd5b5061014b61022a3660046111b3565b6108aa565b34801561023b57600080fd5b5061024f61024a3660046111cc565b610bba565b6040516001600160a01b039091168152602001610122565b61014b6102753660046111b3565b610bf2565b34801561028657600080fd5b5061029a6102953660046111b3565b610e26565b60405161ffff9091168152602001610122565b3480156102b957600080fd5b5061014b6102c8366004611134565b610e54565b3480156102d957600080fd5b5061014b611007565b3480156102ee57600080fd5b506000546001600160a01b031661024f565b34801561030c57600080fd5b5060015461024f906001600160a01b031681565b34801561032c57600080fd5b5061011861033b366004611134565b600360209081526000928352604080842090915290825290205481565b34801561036457600080fd5b506101186103733660046111b3565b60009081526004602052604090205490565b34801561039157600080fd5b506101d16103a03660046111b3565b600090815260026020819052604090912080546001820154928201546003909201546001600160a01b039091169360ff8083169261010081048216926201000090910490911690565b3480156103f557600080fd5b5061014b61040436600461118f565b61101b565b60008281526003602090815260408083206001600160a01b03851684529091529020545b92915050565b6001546001600160a01b031633146104665760405162461bcd60e51b815260040161045d906111ee565b60405180910390fd5b61046e611056565b600082815260026020526040902080546001600160a01b03166104a35760405162461bcd60e51b815260040161045d90611216565b6003810154610100900460ff16156104f95760405162461bcd60e51b8152602060048201526019602482015278141c9bda9958dd08185b1c9958591e4818dbdb5c1b195d1959603a1b604482015260640161045d565b600381015462010000900460ff16156105495760405162461bcd60e51b8152602060048201526012602482015271141c9bda9958dd081a185cc819985a5b195960721b604482015260640161045d565b60018260ff1610158015610561575060048260ff1611155b61059d5760405162461bcd60e51b815260206004820152600d60248201526c496e76616c696420737461676560981b604482015260640161045d565b60038101546105b09060ff16600161125c565b60ff168260ff16146106045760405162461bcd60e51b815260206004820152601d60248201527f4d696c6573746f6e6573206d7573742062652073657175656e7469616c000000604482015260640161045d565b60006127106006610616600186611275565b60ff16600481106106295761062961128e565b601091828204019190066002029054906101000a900461ffff1661ffff16836001015461065691906112a4565b61066091906112bb565b90508082600201600082825461067691906112dd565b909155505060038201805460ff191660ff851690811790915560040361073a5760038201805461ff001916610100179055600282015460018301546000916106bd916112f0565b4710156106cb5760006106df565b826002015483600101546106df91906112f0565b9050801561070d576106f181836112dd565b91508083600201600082825461070791906112dd565b90915550505b60405185907f60d8df137e489b6216738e436244ca4700bd6d0c8371d3c8d9c80b54538111b990600090a2505b81546040516000916001600160a01b03169083908381818185875af1925050503d8060008114610786576040519150601f19603f3d011682016040523d82523d6000602084013e61078b565b606091505b50509050806107dc5760405162461bcd60e51b815260206004820152601960248201527f5472616e7366657220746f206661726d6572206661696c656400000000000000604482015260640161045d565b6040805160ff861681526020810184905286917fb5e7231814419e5a5e888606251cb3b5325a5339501a127b8f728e49a0d86660910160405180910390a2505050610834600160008051602061131d83398151915255565b5050565b610840611072565b6001600160a01b0381166108885760405162461bcd60e51b815260206004820152600f60248201526e496e76616c6964206164647265737360881b604482015260640161045d565b600180546001600160a01b0319166001600160a01b0392909216919091179055565b6001546001600160a01b031633146108d45760405162461bcd60e51b815260040161045d906111ee565b6108dc611056565b600081815260026020526040902080546001600160a01b03166109115760405162461bcd60e51b815260040161045d90611216565b6003810154610100900460ff161561096b5760405162461bcd60e51b815260206004820152601f60248201527f43616e6e6f7420726566756e6420636f6d706c657465642070726f6a65637400604482015260640161045d565b600381015462010000900460ff16156109b95760405162461bcd60e51b815260206004820152601060248201526f105b1c9958591e481c99599d5b99195960821b604482015260640161045d565b60038101805462ff0000191662010000179055600281015460018201546000916109e2916112f0565b9050806000036109f3575050610ba0565b6000838152600460205260408120905b8154811015610b9b576000828281548110610a2057610a2061128e565b60009182526020808320909101548883526003825260408084206001600160a01b03909216808552919092529082205490925090819003610a62575050610b89565b6001860154600090610a7487846112a4565b610a7e91906112bb565b905080600003610a9057505050610b89565b60008881526003602090815260408083206001600160a01b03871680855292528083208390555183908381818185875af1925050503d8060008114610af1576040519150601f19603f3d011682016040523d82523d6000602084013e610af6565b606091505b5050905080610b405760405162461bcd60e51b81526020600482015260166024820152751499599d5b99081d1c985b9cd9995c8819985a5b195960521b604482015260640161045d565b836001600160a01b0316897f80b577b4fc190ab86d963549e29f496afd079c5d81a2480d61217d4b5060a28c84604051610b7c91815260200190565b60405180910390a3505050505b80610b9381611303565b915050610a03565b505050505b610bb7600160008051602061131d83398151915255565b50565b60046020528160005260406000208181548110610bd657600080fd5b6000918252602090912001546001600160a01b03169150829050565b610bfa611056565b600081815260026020526040902080546001600160a01b0316610c2f5760405162461bcd60e51b815260040161045d90611216565b6003810154610100900460ff1615610c855760405162461bcd60e51b8152602060048201526019602482015278141c9bda9958dd08185b1c9958591e4818dbdb5c1b195d1959603a1b604482015260640161045d565b600381015462010000900460ff1615610cd55760405162461bcd60e51b8152602060048201526012602482015271141c9bda9958dd081a185cc819985a5b195960721b604482015260640161045d565b60003411610d1c5760405162461bcd60e51b81526020600482015260146024820152734d7573742073656e6420736f6d652066756e647360601b604482015260640161045d565b34816001016000828254610d3091906112dd565b9091555050600082815260036020908152604080832033845290915281208054349290610d5e9084906112dd565b9091555050600082815260056020908152604080832033845290915290205460ff16610dd75760008281526004602090815260408083208054600181810183559185528385200180546001600160a01b0319163390811790915586855260058452828520908552909252909120805460ff191690911790555b604051348152339083907fe030e47e27825a2ad1b19e4cf2e70bfbfb3124af275c7727a82b114ba7b29a859060200160405180910390a350610bb7600160008051602061131d83398151915255565b60068160048110610e3657600080fd5b60109182820401919006600202915054906101000a900461ffff1681565b6001546001600160a01b03163314610e7e5760405162461bcd60e51b815260040161045d906111ee565b6001600160a01b038116610ecd5760405162461bcd60e51b8152602060048201526016602482015275496e76616c6964206661726d6572206164647265737360501b604482015260640161045d565b6000828152600260205260409020546001600160a01b031615610f2b5760405162461bcd60e51b815260206004820152601660248201527550726f6a65637420616c72656164792065786973747360501b604482015260640161045d565b6040805160c0810182526001600160a01b0380841680835260006020808501828152858701838152606087018481526080880185815260a089018681528c87526002958690528a872099518a5499166001600160a01b031990991698909817895592516001890155905192870192909255905160039095018054915194511515620100000262ff0000199515156101000261ffff1990931660ff9790971696909617919091179390931693909317909155915184917f63c92f9505d420bff631cb9df33be952bdc11e2118da36a850b43e6bcc4ce4de91a35050565b61100f611072565b611019600061109f565b565b611023611072565b6001600160a01b03811661104d57604051631e4fbdf760e01b81526000600482015260240161045d565b610bb78161109f565b61105e6110ef565b600260008051602061131d83398151915255565b6000546001600160a01b031633146110195760405163118cdaa760e01b815233600482015260240161045d565b600080546001600160a01b038381166001600160a01b0319831681178455604051919092169283917f8be0079c531659141344cd1fd0a4f28419497f9722a3daafe3b4186f6b6457e09190a35050565b60008051602061131d8339815191525460020361101957604051633ee5aeb560e01b815260040160405180910390fd5b6001600160a01b0381168114610bb757600080fd5b6000806040838503121561114757600080fd5b8235915060208301356111598161111f565b809150509250929050565b6000806040838503121561117757600080fd5b82359150602083013560ff8116811461115957600080fd5b6000602082840312156111a157600080fd5b81356111ac8161111f565b9392505050565b6000602082840312156111c557600080fd5b5035919050565b600080604083850312156111df57600080fd5b50508035926020909101359150565b6020808252600e908201526d139bdd08185d5d1a1bdc9a5e995960921b604082015260600190565b602080825260169082015275141c9bda9958dd08191bd95cc81b9bdd08195e1a5cdd60521b604082015260600190565b634e487b7160e01b600052601160045260246000fd5b60ff818116838216019081111561042d5761042d611246565b60ff828116828216039081111561042d5761042d611246565b634e487b7160e01b600052603260045260246000fd5b808202811582820484141761042d5761042d611246565b6000826112d857634e487b7160e01b600052601260045260246000fd5b500490565b8082018082111561042d5761042d611246565b8181038181111561042d5761042d611246565b60006001820161131557611315611246565b506001019056fe9b779b17422d0df92223018b32b4d1fa46e071723d6817e2486d003becc55f00a264697066735822122052b6e18be5c5f0de32f87138460a73452c7eaf1190736d30e390c7dd0cda0c9464736f6c63430008140033",
  "linkReferences": {},
  "deployedLinkReferences": {}
}